S00B0000534F532E7372656324
S11300000C942A000C9447000C9447000C9435027D
S11300100C9447000C9447000C9447000C94470040
S11300200C9447000C9447000C9447000C941E0257
S11300300C9447000C9447000C9447000C94470020
S11300400C9447000C9447000C9447000C94470010
S11300500C94470011241FBECFE5D8E0DEBFCDBF0E
S113006010E0A0E6B0E0E2E1F5E002C005900D92F8
S1130070A437B107D9F720E0A4E7B0E001C01D928E
S1130080A737B207E1F70E9477000C9487020C941B
S1130090000063E081E00E946900089564E081E06B
S11300A00E94690008950E94BA014CE261E080E078
S11300B00E94D50144EF62E081E00E94D5010895D9
S11300C00E94ED01089541E00E947E00811181E0CB
S11300D008950E946401811181E0089540E00E9426
S11300E07E0008950E94FD00811181E008950E9420
S11300F053000E94600080E090E00895442319F0CA
S11301004130E9F174C0813099F028F08230E9F08F
S1130110833041F16EC02AB381E090E002C0880FC1
S1130120991F6A95E2F7809582238ABB80E008953F
S113013027B381E090E002C0880F991F6A95E2F727
S11301408095822387BB80E0089524B381E090E00A
S113015002C0880F991F6A95E2F78095822384BBB9
S113016080E0089521B381E090E002C0880F991FD8
S11301706A95E2F78095822381BB80E008958130FF
S113018091F028F08230D9F0833029F134C02AB3B9
S113019081E090E002C0880F991F6A95E2F7822BF4
S11301A08ABB80E0089527B381E090E002C0880F05
S11301B0991F6A95E2F7822B87BB80E0089524B3E8
S11301C081E090E002C0880F991F6A95E2F7822BC4
S11301D084BB80E0089521B381E090E002C0880FE1
S11301E0991F6A95E2F7822B81BB80E0089581E034
S11301F0089581E0089581E008958130F1F030F0B0
S1130200823091F1833009F446C05CC079B381E057
S113021090E09C01062E02C0220F331F0A94E2F7DD
S1130220872F90E08223932302C0959587956A9542
S1130230E2F7FA01808380E0089576B381E090E0EC
S11302409C01062E02C0220F331F0A94E2F7872F67
S113025090E08223932302C0959587956A95E2F7EF
S1130260FA01808380E0089573B381E090E09C01FB
S1130270062E02C0220F331F0A94E2F7872F90E064
S11302808223932302C0959587956A95E2F7FA0134
S1130290808380E0089570B381E090E09C01062E95
S11302A002C0220F331F0A94E2F7872F90E08223C3
S11302B0932302C0959587956A95E2F7FA018083A6
S11302C080E0089581E00895813091F028F0823033
S11302D0D9F0833029F130C02BB381E090E002C023
S11302E0880F991F6A95E2F782278BBB80E00895F7
S11302F028B381E090E002C0880F991F6A95E2F765
S1130300822788BB80E0089525B381E090E002C095
S1130310880F991F6A95E2F7822785BB80E00895CC
S113032022B381E090E002C0880F991F6A95E2F73A
S1130330822782BB80E0089581E0089583B78F7798
S113034083BF83B78F7B83BF83B7877F83BF83B725
S11303508F7E83BF83B78F7D83BF80E0089583B78B
S1130360816083BF83B78D7F83BF83B78B7F83BF58
S113037080E0089563E070E081E090E00E94630013
S113038064E070E081E090E00E94630064E070E06B
S113039082E090E00E946E0062E070E081E090E014
S11303A00E946E000E949E010895E82FF0E0A0E0F4
S11303B0B0E08C9350E013965C934E931297119691
S11303C06C931197EE0FFF1FE05AFF4F80819181CC
S11303D015969C938E93149708950E94AF0144E759
S11303E050E064E070E082E090E00E94720080914E
S11303F074008130A1F780917500909176006FE9C7
S113040074E20E945F02892B29F4E0910400F091C8
S113041005000995809175009091760069E07DE36F
S11304200E945F02892B29F4E0910400F0910500F9
S11304300995809174008111DECFD1CF1F920F9264
S11304400FB60F9211248F939F9380917500909112
S11304507600019690937600809375009F918F911A
S11304600F900FBE0F901F9018951F920F920FB60A
S11304700F9211242F933F934F935F936F937F9326
S11304808F939F93AF93BF93EF93FF9344E750E011
S113049064E070E082E090E00E947200FF91EF91CE
S11304A0BF91AF919F918F917F916F915F914F9188
S11304B03F912F910F900FBE0F901F90189597FBAF
S11304C0072E16F4009407D077FD09D00E9473021A
S11304D007FC05D03EF4909581959F4F0895709543
S11304E061957F4F0895AA1BBB1B51E107C0AA1F4A
S11304F0BB1FA617B70710F0A61BB70B881F991FC1
S11305005A95A9F780959095BC01CD010895F8946A
S1050510FFCF17
S113051249004E000000000000000000000000003E
S107052200000000D1
S9030000FC
